:0A054900020A000001090001080188
:1004F500C29512032A12052C12053C1204D01201D2
:03050500A280F8D9
:03000B00020508E3
:10050800C0E0050BE50B7002050A758CD8758AF0FA
:03051800D0E032FE
:030003000205549F
:06055400D2A97509013275
:0300130002055A89
:06055A00C2A9750902327E
:10052C00758901758CD8758AF0C2A9D28CD2AF228C
:0D053C00C2AFD288D2A8D28AD2AAD2AF22F2
:1004D000AF08209008750903E4F50880037508014A
:1004E000E5097003C2A922BF010AE5087006C2A986
:0404F000F50AF50B09
:0104F40022E5
:1001A200D3E50B940FE50A9427403FE4FF12049A2B
:1001B200E4FD7F0912002C7F0112049A120521E44A
:1001C200FF12049A7D017F0912002C7F0212049A09
:1001D200120521E4FF12049AE4FD7F0912002C7F2C
:1001E2000312049A120521020321D3E50B94E7E5D9
:1001F2000A94034062E4FF12049AAE0AAF0B7C0336
:100202007DE8120445E4FD12002C7F0112049A12CB
:100212000521E4FF12049AAE0AAF0B7C007D641242
:1002220004457C007D0A120445AF057D0112002CB5
:100232007F0212049A120521E4FF12049A12001698
:100242007F0312049A120521E4FF12049AAE0AAF48
:100252000B120021020321D3E50B9463E50A9400FB
:10026200403CE4FF12049AAE0AAF0B7C007D64129C
:1002720004457D0112002C7F0212049A120521E42A
:10028200FF12049A1200167F0312049A120521E447
:10029200FF12049AAE0AAF0B120021020321D3E52A
:1002A2000B9409E50A9400E4FF404312049A7D018D
:1002B200E4FF12002C7F0212049A120521E4FF12BD
:1002C200049AAE0AAF0B7C007D0A120445E4FD12CB
:1002D200002C7F0312049A120521E4FF12049AAE45
:1002E2000AAF0B7C007D0A120445AF05802C120474
:1002F2009A7D01E4FF12002C7F0212049A1205215A
:10030200E4FF12049AE4FDFF12002C7F0312049A08
:10031200120521E4FF12049AAF0BE4FD12002C7FB8
:080322000412049A12052122C5
:06051B00E4FDFF12002CBC
:0A0521007F137E64DEFEDFFAB29560
:01052B0022AD
:10001600AE0AAF0B7C007D0A1204457C007D0A12F5
:060026000445AF05E4FDF6
:10002C00EFB40A0040030201A190003CF8282873A9
:10003C0002005A02007B02009C0200B70200D802A8
:10004C0000F902011A02013902015E02017DBD01B3
:10005C000FC2A0C2A1C2A2C2A3C2A4C2A5020148DF
:10006C00C2A0C2A1C2A2C2A3C2A4C2A5020159BD10
:10007C00010FD2A0C2A1C2A2D2A3D2A4D2A50201C6
:10008C0048D2A0C2A1C2A2D2A3D2A4D2A502015925
:10009C00BD010CC2A0C2A1D2A2C2A3C2A48019C22B
:1000AC00A0C2A1D2A2C2A3C2A4801CBD010FC2A037
:1000BC00C2A1C2A2C2A3D2A4D2A502018CC2A0C268
:1000CC00A1C2A2C2A3D2A4D2A502019DBD010FD28E
:1000DC00A0C2A1C2A2D2A3D2A4C2A502018CD2A05A
:1000EC00C2A1C2A2D2A3D2A4C2A502019DBD010F7E
:1000FC00C2A0D2A1C2A2C2A3D2A4C2A502018CC228
:10010C00A0D2A1C2A2C2A3D2A4C2A502019DBD01CC
:10011C000EC2A0D2A1C2A2C2A3C2A4C2A58061C2B7
:10012C00A0D2A1C2A2C2A3C2A4C2A58064BD011167
:10013C00C2A0C2A1C2A2D2A3D2A4D2A5D2A6C2A747
:10014C0022C2A0C2A1C2A2D2A3D2A4D2A5D2A6D2AC
:10015C00A722BD010EC2A0C2A1C2A2C2A3C2A4C248
:10016C00A5801DC2A0C2A1C2A2C2A3C2A4C2A58066
:10017C0020BD0111C2A0C2A1C2A2C2A3D2A4C2A519
:10018C00C2A6C2A722C2A0C2A1C2A2C2A3D2A4C2AA
:06019C00A5C2A6D2A722B5
:10032A00750C647F0212049AD2A0C2A1C2A2C2A30F
:10033A00C2A4D2A5D2A6D2A71205217F0312049A7B
:10034A00D2A0C2A1C2A2D2A3C2A4C2A5C2A6D2A747
:10035A001205217F0412049AD2A0D2A1D2A2C2A36A
:10036A00C2A4C2A5D2A6D2A7120521150CE50CD3A8
:10037A00940050AF750D647F0112049A12051B7F19
:10038A000212049AE4FD7F0112002C1205217F0358
:10039A0012049A12051B7F0412049AE4FD7F0712C5
:0E03AA00002C120521150DE50DD3940050C94D
:0103B8002222
:10049A00EF14601114601414601A1460202404709C
:1004AA0024D2918002C291D2928004D291C292D275
:1004BA0093D29422D291D292C293D29422D291D23E
:0604CA0092D293C29422BD
:030000000203B93F
:0C03B900787FE4F6D8FD75810D02040089
:10044500BC000BBE0029EF8DF084FFADF022E4CC9B
:10045500F875F008EF2FFFEE33FEEC33FCEE9DEC64
:10046500984005FCEE9DFE0FD5F0E9E4CEFD22EDAA
:10047500F8F5F0EE8420D21CFEADF075F008EF2FF4
:10048500FFED33FD4007985006D5F0F222C398FDE5
:050495000FD5F0EA2282
:1003C5000204F5E493A3F8E493A34003F68001F255
:1003D50008DFF48029E493A3F85407240CC8C33339
:1003E500C4540F4420C8834004F456800146F6DF08
:1003F500E4800B0102040810204080900549E47E4A
:10040500019360BCA3FF543F30E509541FFEE493FC
:10041500A360010ECF54C025E060A840B8E493A3C3
:10042500FAE493A3F8E493A3C8C582C8CAC583CAEE
:10043500F0A3C8C582C8CAC583CADFE9DEE780BEA6
:0105530000A7
:00000001FF
