:0A05C700020A00000109000108010A
:10058400C2951203861205AA1205BA120538120181
:03059400FE80F8EE
:03000B0002059754
:10059700C0E0050BE50B7002050A758CD8758AF06B
:0305A700D0E0326F
:030003000205D221
:0605D200D2A975090132F7
:030013000205D80B
:0605D800C2A97509023200
:1005AA00758901758CD8758AF0C2A9D28CD2AF220E
:0D05BA00C2AFD288D2A8D28AD2AAD2AF2274
:10053800AF08209008750903E4F5088003750801E1
:10054800E5097003C2A922EF6401700AE508700684
:06055800C2A9F50AF50B33
:01055E00227A
:1001FE00D3E50B940FE50A9427403FE4FF12050266
:10020E00E4FD7F0912002C7F01120502120565E440
:10021E00FF1205027D017F0912002C7F02120502DA
:10022E00120565E4FF120502E4FD7F0912002C7F22
:10023E000312050212056502037DD3E50B94E7E573
:10024E000A94034062E4FF120502AE0AAF0B7C0370
:10025E007DE81204ADE4FD12002C7F01120502129E
:10026E000565E4FF120502AE0AAF0B7C007D641239
:10027E0004AD7C007D0A1204ADAF057D0112002C89
:10028E007F02120502120565E4FF12050212001626
:10029E007F03120502120565E4FF120502AE0AAFD6
:1002AE000B12002102037DD3E50B9463E50A940043
:1002BE00403CE4FF120502AE0AAF0B7C007D6412D7
:1002CE0004AD7D0112002C7F02120502120565E4B9
:1002DE00FF1205021200167F03120502120565E4D5
:1002EE00FF120502AE0AAF0B12002102037DD3E509
:1002FE000B9409E50A9400E4FF40431205027D01C8
:10030E00E4FF12002C7F02120502120565E4FF12B3
:10031E000502AE0AAF0B7C007D0A1204ADE4FD129D
:10032E00002C7F03120502120565E4FF120502AED2
:10033E000AAF0B7C007D0A1204ADAF05802C1205AE
:10034E00027D01E4FF12002C7F02120502120565E8
:10035E00E4FF120502E4FDFF12002C7F03120502DA
:10036E00120565E4FF120502AF0BE4FD12002C7FAF
:08037E000412050212056522BC
:06055F00E4FDFF12002C78
:100565007F1EEFD394007480948040127E0CEED3EE
:0E05750094007480948040031E80F31F80E485
:010583002255
:10001600AE0AAF0B7C007D0A1204AD7C007D0A128D
:0600260004ADAF05E4FD8E
:10002C00EFB40A0040030201FD90003CF82828734D
:10003C0002005A0200840200AE0200D20200FC024E
:10004C0001260201500201790201A70201CFEDFF46
:10005C003395E0FEEF64014E700FC2A0C2A1C2A2A4
:10006C00C2A3C2A4C2A5020191C2A0C2A1C2A2C2D3
:10007C00A3C2A4C2A50201A2EDFF3395E0FEEF647A
:10008C00014E700FD2A0C2A1C2A2D2A3D2A4D2A5FB
:10009C00020191D2A0C2A1C2A2D2A3D2A4D2A50223
:1000AC0001A2EDFF3395E0FEEF64014E700CC2A08F
:1000BC00C2A1D2A2C2A3C2A48022C2A0C2A1D2A2B7
:1000CC00C2A3C2A48025EDFF3395E0FEEF64014E80
:1000DC00700FC2A0C2A1C2A2C2A3D2A4D2A5020117
:1000EC00E8C2A0C2A1C2A2C2A3D2A4D2A50201F9A5
:1000FC00EDFF3395E0FEEF64014E700FD2A0C2A16C
:10010C00C2A2D2A3D2A4C2A50201E8D2A0C2A1C2AB
:10011C00A2D2A3D2A4C2A50201F9EDFF3395E0FE51
:10012C00EF64014E700FC2A0D2A1C2A2C2A3D2A48E
:10013C00C2A50201E8C2A0D2A1C2A2C2A3D2A4C28B
:10014C00A50201F9EDFF3395E0FEEF64014E700E50
:10015C00C2A0D2A1C2A2C2A3C2A4C2A5807EC2A0C8
:10016C00D2A1C2A2C2A3C2A4C2A50201F9EDFF335F
:10017C0095E0FEEF64014E7011C2A0C2A1C2A2D2E2
:10018C00A3D2A4D2A5D2A6C2A722C2A0C2A1C2A2A7
:10019C00D2A3D2A4D2A5D2A6D2A722EDFF3395E04A
:1001AC00FEEF64014E700EC2A0C2A1C2A2C2A3C2D5
:1001BC00A4C2A58027C2A0C2A1C2A2C2A3C2A4C2CB
:1001CC00A5802AAF05EF3395E0FEEF64014E701168
:1001DC00C2A0C2A1C2A2C2A3D2A4C2A5C2A6C2A7D7
:1001EC0022C2A0C2A1C2A2C2A3D2A4C2A5C2A6D23C
:0201FC00A72238
:10038600750C50D3E50C940074809480404C7F0229
:10039600120502D2A0C2A1C2A2C2A3C2A4D2A5D2F1
:1003A600A6D2A71205657F03120502D2A0C2A1C27A
:1003B600A2D2A3C2A4C2A5C2A6D2A71205657F0473
:1003C600120502D2A0D2A1D2A2C2A3C2A4C2A5D2B1
:1003D600A6D2A7120565150C80A9750D50D3E50D9B
:1003E60094007480948040327F0112050212055FEA
:1003F6007F02120502E4FD7F0112002C1205657FC3
:100406000312050212055F7F04120502E4FD7F0751
:0A04160012002C120565150D80C3BD
:0104200022B9
:10050200EF14601114601414601A14602024047033
:1005120024D2918002C291D2928004D291C292D20C
:1005220093D29422D291D292C293D29422D291D2D5
:0605320092D293C2942254
:03000000020421D6
:0C042100787FE4F6D8FD75810D020468B8
:1004AD00BC000BBE0029EF8DF084FFADF022E4CC33
:1004BD00F875F008EF2FFFEE33FEEC33FCEE9DECFC
:1004CD00984005FCEE9DFE0FD5F0E9E4CEFD22ED42
:1004DD00F8F5F0EE8420D21CFEADF075F008EF2F8C
:1004ED00FFED33FD4007985006D5F0F222C398FD7D
:0504FD000FD5F0EA221A
:10042D00020584E493A3F8E493A34003F68001F25C
:10043D0008DFF48029E493A3F85407240CC8C333D0
:10044D00C4540F4420C8834004F456800146F6DF9F
:10045D00E4800B01020408102040809005C7E47E63
:10046D00019360BCA3FF543F30E509541FFEE49394
:10047D00A360010ECF54C025E060A840B8E493A35B
:10048D00FAE493A3F8E493A3C8C582C8CAC583CA86
:10049D00F0A3C8C582C8CAC583CADFE9DEE780BE3E
:0105D1000029
:00000001FF
