:0A045E00020A000001090001080174
:0B0453001204361203FE1201A280F812
:03000B00020423C9
:10042300C0E0050BE50B7002050A758CE1758AB413
:03043300D0E032E4
:030003000204698B
:0A046900C2AF750901D2A9D2AF326B
:0300130002047371
:0A047300C2AF750902C2A9D2AF3270
:10043600758901758CE1758AB4D2A9D28CD2AF22A6
:0D044600C2AFD288D2A8D28AD2AAD2AF22E9
:1003FE00AF08209008750903E4F50880037508011D
:10040E00BF010BE5087007C2A9F50AF50B22E50935
:04041E007002C2A9FD
:0104220022B7
:1001A200D3E50B940FE50A942740357F011203CE65
:1001B200E4FD7F0912002C12047D7F021203CE7D22
:1001C200017F0912002C12047D7F031203CEE4FD8D
:1001D2007F0912002C12047D7F041203CE0202E971
:1001E200D3E50B94E7E50A940340537F011203CE53
:1001F200AE0AAF0B7C037DE8120379E4FD12002CFA
:1002020012047D7F021203CEAE0AAF0B7C007D6426
:100212001203797C007D0A120379AF057D01120079
:100222002C12047D7F031203CE12001612047D7F6E
:10023200041203CEAE0AAF0B1200210202E9D3E58B
:100242000B9463E50A940040317F021203CEAE0A9A
:10025200AF0B7C007D641203797D0112002C120425
:100262007D7F031203CE12001612047D7F04120357
:10027200CEAE0AAF0B120021806DD3E50B9409E5D7
:100282000A94007F0240391203CE7D01E4FF12007E
:100292002C12047D7F031203CEAE0AAF0B7C007DCD
:1002A2000A120379E4FD12002C12047D7F0412036A
:1002B200CEAE0AAF0B7C007D0A120379AF05802215
:1002C2001203CE7D01E4FF12002C12047D7F031283
:1002D20003CEE4FDFF12002C12047D7F041203CE34
:0B02E200AF0BE4FD12002C12047D2283
:08047D007F137E78DEFEDFFA3A
:010485002254
:10001600AE0AAF0B7C007D0A1203797C007D0A12C2
:060026000379AF05E4FDC3
:10002C00EFB40A0040030201A190003CF8282873A9
:10003C0002005A02007B02009C0200B70200D802A8
:10004C0000F902011A02013902015E02017DBD01B3
:10005C000FC2A0C2A1C2A2C2A3C2A4C2A5020148DF
:10006C00C2A0C2A1C2A2C2A3C2A4C2A5020159BD10
:10007C00010FD2A0C2A1C2A2D2A3D2A4D2A50201C6
:10008C0048D2A0C2A1C2A2D2A3D2A4D2A502015925
:10009C00BD010CC2A0C2A1D2A2C2A3C2A48019C22B
:1000AC00A0C2A1D2A2C2A3C2A4801CBD010FC2A037
:1000BC00C2A1C2A2C2A3D2A4D2A502018CC2A0C268
:1000CC00A1C2A2C2A3D2A4D2A502019DBD010FD28E
:1000DC00A0C2A1C2A2D2A3D2A4C2A502018CD2A05A
:1000EC00C2A1C2A2D2A3D2A4C2A502019DBD010F7E
:1000FC00C2A0D2A1C2A2C2A3D2A4C2A502018CC228
:10010C00A0D2A1C2A2C2A3D2A4C2A502019DBD01CC
:10011C000EC2A0D2A1C2A2C2A3C2A4C2A58061C2B7
:10012C00A0D2A1C2A2C2A3C2A4C2A58064BD011167
:10013C00C2A0C2A1C2A2D2A3D2A4D2A5D2A6C2A747
:10014C0022C2A0C2A1C2A2D2A3D2A4D2A5D2A6D2AC
:10015C00A722BD010EC2A0C2A1C2A2C2A3C2A4C248
:10016C00A5801DC2A0C2A1C2A2C2A3C2A4C2A58066
:10017C0020BD0111C2A0C2A1C2A2C2A3D2A4C2A519
:10018C00C2A6C2A722C2A0C2A1C2A2C2A3D2A4C2AA
:06019C00A5C2A6D2A722B5
:1003CE00EF24FE601014601614601C24037020C20B
:1003DE0091D2928004D291C292D293D29422D2918F
:1003EE00D292C293D29422D291D292D293C294221A
:030000000202ED0C
:0C02ED00787FE4F6D8FD75810B02033425
:10037900BC000BBE0029EF8DF084FFADF022E4CC68
:10038900F875F008EF2FFFEE33FEEC33FCEE9DEC31
:10039900984005FCEE9DFE0FD5F0E9E4CEFD22ED77
:1003A900F8F5F0EE8420D21CFEADF075F008EF2FC1
:1003B900FFED33FD4007985006D5F0F222C398FDB2
:0503C9000FD5F0EA224F
:1002F900020453E493A3F8E493A34003F68001F2C4
:1003090008DFF48029E493A3F85407240CC8C33305
:10031900C4540F4420C8834004F456800146F6DFD4
:10032900E4800B010204081020408090045EE47E02
:10033900019360BCA3FF543F30E509541FFEE493C9
:10034900A360010ECF54C025E060A840B8E493A390
:10035900FAE493A3F8E493A3C8C582C8CAC583CABB
:10036900F0A3C8C582C8CAC583CADFE9DEE780BE73
:010468000093
:00000001FF
